:10104D00012300023C0000042400000000053200D2
:10105D000000000005370000000000012200C1095A
:02106D00C10AB6
:1010CA005389F0438901E4F58A758C4CC28DD2A903
:0110DA0022F3
:03001300020E4A90
:100E4A00C0E0C0F0C083C082C0D075D000C000C06E
:100E5A0001C002C003C004C005C006C007208C043C
:100E6A00D28C803578327C007D007B007A0079371D
:100E7A007E007F051205E5D20A852337853C388531
:100E8A003D39AF8CEFFEAD8A7C00E42DFFEC3ECFFE
:100E9A002400F53BEF34B4F53AD007D006D005D09C
:100EAA0004D003D002D001D000D0D0D082D083D0D9
:040EBA00F0D0E03262
:03000B00020F10D1
:100F1000C0E0C0D075D000C006C007758A00758CCF
:100F20004C0523E523B4140B752300053DE53D7006
:100F300002053CC3E53D9539FFE53C9538FED3EF0E
:100F40009405EE9400401075270075260075250065
:100F5000752400C2A3C2AFD007D006D0D0D0E032F3
:100CA8001210721210CAD28AD2AAD2AFAF27AE26B9
:100CB800AD25AC241202F2120EBE300AEFC20AC3EE
:100CC800E5379532FFE49400FE7C007D321206631E
:100CD800AA06AB07C3E5399534FFE5389533FE7CA2
:100CE800037DE8120663EF2BFDEE3AFCE41202B92D
:100CF800C004C005C006C007C3E53B9536FDE53A0C
:100D08009535FCE41202B97BE47A38798E783A1288
:100D1800010ED003D002D001D00012001D1202F241
:100D2800E52225E02428F8A60608A607E5222401DE
:100D3800FFE433FE7C007D051206758D22E52270E6
:100D480002D209200903020CB4E4F527F526F5259B
:100D5800F524F50EAB27AA26A925A824C000C001B2
:100D6800C002C003E50E25E02428F8E6FC08E6FDED
:100D7800E41202B9D003D002D001D00012001D8FB6
:100D8800278E268D258C24050EE50EB405C6AB27C7
:100D9800AA26A925A824E4FFFE7DA07C40120217FC
:100DA8007B007A60796A784712010E8F278E268D2C
:060DB800258C24020CB49E
:1010EC003F065B4F666D7D077F6F8000FEFDFBF753
:07000300AE071FEE70FA22A8
:100FF000C2A7C2A6EF9010F893F580D2A7C2A7743B
:10100000EC2DF58274103CF583E493F580D2A6C2F2
:10101000A67F011200039010F7E493F580D2A6C2D8
:02102000A62206
:100EBE00AB07AA067C037DE8120675AC06AD07E407
:100ECE00FF120FF07C007D64AF03AE021206757C3C
:100EDE00007D0A1206757F01120FF07C007D0AAFAD
:100EEE0003AE021206757C007D0A1206757F021291
:100EFE000FF0AE02AF037C007D0A1206757F03026F
:020F0E000FF0E2
:1010720053877F75985053890F438920758BFD756F
:091082008DFDC2ABD28ED2992281
:1010B700BF0A083099FDC29975990D3099FDC299FB
:0310C7008F9922DC
:100B7D005749464920434F4E4E454354454400572F
:100B8D0049464920474F542049500041542B434971
:100B9D00504D4F44453D310A004F4B0041542B43BE
:100BAD00495053544152543D22544350222C22312A
:100BBD0038332E3233302E34302E3333222C38301E
:100BCD000A0041542B43495053454E440A003E0000
:100BDD007B226461746173747265616D73223A5B1B
:100BED007B226964223A225370656564222C22644B
:100BFD00617461706F696E7473223A5B7B227661EA
:100C0D006C7565223A25647D5D7D5D7D00504F5389
:100C1D0054202F646576696365732F32353834320D
:100C2D003833352F64617461706F696E7473204849
:100C3D005454502F312E310A6170692D6B65793AFC
:100C4D00446B5961703375374467596D7538783D0C
:100C5D0062654E523D6C516438474D3D0A486F7385
:100C6D00743A6170692E6865636C6F7564732E6379
:100C7D006F6D0A436F6E6E656374696F6E3A636C68
:100C8D006F73650A436F6E74656E742D4C656E6778
:0B0C9D0074683A25640A0A25730A00F7
:02106F00C10BB3
:060F60007BFF7A0B79A66D
:060F66008B088A09890ACC
:100F6C00E4F50BAB08AA09A90A1210A2AD0BED33DC
:100F7C0095E0FCC3ED9FEC9E50233098FDC298ABDE
:100F8C0008AA09A90AAF0BEF3395E08F82F58312FB
:0D0F9C00062465996003750BFF050B80C6E8
:010FA9002225
:10102200C2907BFF7A0B797D120F66D290C2917BC0
:10103200FF7A0B798C120F66D2917BFF7A0B79982B
:0B104200120770C292120F60D29222BF
:1010DB007BFF7A0B79A9120770C293120F60D29320
:0110EB0022E2
:10108B007BFF7A0B79CF120770C2947BFF7A0B79B7
:07109B00DB120F66D2942264
:040FAA008E0C8F0D0D
:100FAE00200B081210DB12108BD20B7541FF75420D
:100FBE000B7543DD850C44850D457BFE7A0079006B
:100FCE0012076A7BFE7A0079001210A28E418F42C0
:100FDE007543FE7544007545007BFF7A0C791A0245
:020FEE0007708A
:1000160002035EE86480F8E933E83360110460F0B7
:10002600ED33EC337009E8FCE9FDEAFEEBFF220450
:1000360060DED3EB9FEA9EE99DE8C2E78CF0C2F74B
:1000460095F0400CE8CCF8E9CDF9EACEFAEBCFFB17
:1000560012032985D0F05804700320D5B3E8047044
:10006600075002B2D502036892D5EC0460F7E4CCDF
:10007600C0E0C398F8603B94186008400DD0E0FBE0
:10008600020340E4FBFAC9FC8028E830E406E4C930
:10009600FBE4CAFCE830E305E4C9CACBFCE8540734
:1000A6006010F8C3E913F9EA13FAEB13FBEC13FC3F
:1000B600D8F130F52FC3E49CFCEF9BFFEE9AFEEDE2
:1000C60099FDD0E0FBEF4E4D4C701222DB0302038C
:1000D60065EC2CFCEF33FFEE33FEED33FDED30E740
:1000E600EB020340EF2BFFEE3AFEED39FDD0E0FBCD
:1000F60050130BBB0003020368ED13FDEE13FEEF76
:0801060013FFEC13FC0203409F
:10010E00EC4D6011E8497017ED33EC3304600DE4EB
:10011E00FCFFFEFD22E933E8330470F802035E12A1
:10012E00032958046009E4CC2481500628500902A2
:10013E000368284003020365C0E0EB4A7044B980AF
:10014E0006D0E0FB020354EF4E701CBD8008EBFF9F
:10015E00EAFEE9FD80EBE98DF0A4FEE5F00201F781
:10016E00E9CDF9EAFEEBFFEF89F0A4FCE5F0CE89CC
:10017E00F0A42EFFE435F0CD89F0A42DFEE435F089
:10018E008067EF4E7005BD80D780C3EF8BF0A4ACB7
:10019E00F0EE8BF0A42CFCE435F0F8EF8AF0A42CF2
:1001AE00E5F038FCE433CB8DF0A42CFCE5F03BF805
:1001BE00EE8AF0A42CFCE5F038F8E433CF89F0A4F5
:1001CE002CFCE5F038CF3400CE89F0A42FFFE5F0FB
:1001DE003EFEE433C98DF0A42EFEE5F039CD8AF053
:1001EE00A42FFFE5F03EFEE43DFD33D0E0FB5007CB
:1001FE000BBB000F020368EC2CFCEF33FFEE33FE5B
:06020E00ED33FD02034088
:10021400020368EC5D046005E85904700302035EA0
:10022400120329580460F6EC4860F2EC7004FDFEF9
:10023400FF22C860DB2481C85009C39860025006BD
:100244000203659850CAF582E9294B4A7005AB82CE
:1002540002035475F0007C1A7880C3EF9BEE9AED8C
:1002640099400DC3EF9BFFEE9AFEED99FDE842F035
:10027400DC23ACF0D0E0FFD0E0FED0E0FDAB822088
:10028400E7101BEB60BAEC2CFCEF33FFEE33FEED12
:1002940033FD020340E803F830E705C0F075F000D1
:1002A400EF2FFFEE33FEED33FD40B830E7C280AAF6
:1002B40075F020800E75F010800575F0087D007EC5
:1002C400007F003392D530D5031206CAEC334010B8
:1002D400EF33FFEE33FEED33FDEC33FCD5F0ED22CE
:0E02E400E5F0247EA2D513CC92E7CDCEFF220A
:1002F200EDD2E7CD33EC3392D524814006E4FFFE04
:10030200FDFC22FCE4CFCECDCC24E0501174FF8062
:10031200EDC3CC13CCCD13CDCE13CECF13CF0470FF
:07032200F030D5DE0206CA2F
:10070E00E5552441F8E6055522783E30070278413A
:10071E00E475F0011206D802060B2000EB7F2ED2F4
:10072E00008018EF540F2490D43440D4FF30040BC3
:10073E00EF24BFB41A0050032461FFE55660021582
:10074E00560559E5597002055830070D783EE47587
:10075E00F0011206D8EF0206510210B77403D20749
:10076E008003E4C207F5558B3E8A3F8940E4F55677
:10077E00F558F559E55660077F2012074980F57543
:10078E0057FFC201C200C202C203C205C206C2089E
:10079E00120717FF700D3007057F0012075AAF5969
:1007AE00AE5822B4255FC2D5C204120717FF24D05B
:1007BE00B40A00501A75F00A785630D50508B6FFFF
:1007CE000106C6A426F620D5047002D20380D924D1
:1007DE00CFB41A00EF5004C2E5D204020A47D20188
:1007EE0080C6D20080C0D20280BCD2D580BAD205DB
:1007FE0080B47F201207492002077401B5560040CD
:10080E00F112070EFF120749020782D208D20680A4
:10081E009512070EFB12070EFA12070EF94A4B70CD
:10082E0006793E7A0B7BFF20022EE556602A7E006B
:10083E008E8275830012062460060EEE655770F0E8
:10084E00C2D5EBC0E0EAC0E0E9C0E0EE120AA7D0E4
:10085E00E0F9D0E0FAD0E0FB12060BFF60AAEBC085
:10086E00E0EAC0E0E9C0E0120749D0E02401F9D087
:10087E00E03400FAD0E0FBE5570460DCD557D980B0
:10088E0087D20280A2120A8A60F7E557700104121D
:10089E000373A957600DE557600914F557120B3114
:1008AE00EF60F3EA30E702F404C3995077EAF425D7
:1008BE00570430E701E404F557800D120A8A60C12F
:1008CE00EA05572557120373EA7854F630E701E428
:1008DE00255704D5570420050114120AA7E4C0E0D9
:1008EE00120B317854E6601320E70714F612073125
:1008FE00802204F6D0E014C0E07F00120731E557E5
:10090E0060071207281557800B300503120728D0F1
:10091E00E0020782D0E00480C5120A8A60A0E55783
:10092E00041203737854EAF6E557200502600104B9
:05093E002404120AA7C9
:1009430074FF04C0E0120B31120731E55720050292
:100953006003120728D0E0B557E87F4512073B78BC
:1009630054E67F2B30E7047F2DF404C0E0120749DF
:10097300D0E075F00A84C0F0120732D0E0120732DB
:10098300020782791080027908C206C2088008D261
:10099300D5790A8004790AC2D5E557047002F55760
:1009A300E4FAFDFEFF12070EFC7B08200113120779
:1009B3000EFD7B1030000A12070EFE12070EFF7B9E
:1009C30020EC3382D592D55013C3E43000069FFF49
:1009D300E49EFEE42001039DFDE49CFCE4CBF8C20D
:1009E30001EC700CCFCECDCCE824F8F870F380176F
:1009F300C3EF33FFEE33FEED33FDEC33FCEB33FBA0
:100A0300994002FB0FD8E9EB300105F8D0E0C44868
:100A1300B201C0E00AEC4D4E4F78207B0070C2EA71
:100A2300B5570040BCC0E0120AA9D0F0D0E02001C5
:100A330004C4C0E0C4B201C0F0120732D0F0D5F054
:100A4300EB0207821206E8081F5309865807F04C89
:100A530007EC42098A4F0992440992490805430960
:100A6300985508C9460927450893470B5E5007F474
:100A73002D07F82E081B2B07FC230819200B472AE8
:100A830007B44800000813E557B4FF03755706126F
:100A9300070EFC12070EFD12070EFE12070EFF785B
:100AA3004D0203A2790AA2D5200314300509B91017
:100AB300020404B9080104A2D5200602500104204F
:100AC30002689202B556005034C0E07F203003190B
:100AD3007F30A20272067205500F120B00C202C2CF
:100AE30006C205C2087F30800F300503E9C0E0125B
:100AF3000749300503D0E0F9D0E0B556CC300517EF
:100B03007F30B9100C1207497F583004077F788073
:100B130003B908031207493002057F2D0207497FF5
:100B2300202008F87F2B2006F322920280CF7F003B
:100B3300B407005005244DF8E6FF22286E756C6C4F
:100B43002900D20112070E3001F8C201785630D5C0
:100B53000108F60207B42D5043495812070E240327
:100B6300B405004001E4900B599312073A743A120A
:0A0B7300073AD20375560402098602
:10032900E9D2E7C933E833F892D5EDD2E7CD33EC1A
:0703390033FC5002B2D52293
:10034000EC30E7100FBF000C0EBE00080DBD00041E
:100350000BEB6014A2D5EB13FCED92E7FD2274FFCA
:10036000FCFDFEFF22E480F8A2D574FF13FC7D8023
:03037000E480EF37
:10037300F920E72824F950037907E4F42402FB1851
:10038300DBFDE624FB5014E9600DE4F618E604F601
:0F039300B40A08E4F6D9F57401F60A22C2D5229D
:1003A200ED33EC3392D5FA602AB4FF33EDC2E77B2A
:1003B200FF60067A0379C7E4227A0379D020D50454
:1003C2007A0379CB224E614E002B494E46002D49CD
:1003D2004E4600E47A08F608DAFC7B00740722E84D
:1003E200C0E0ECC0E0EDC0E0EEC0E0EFC0E0EA75D6
:1003F200F010A4CAABF075F04DA42BFBE435F0FC71
:10040200EA2410FAEB34C5FBEC34D9FCEDC2E7FF69
:1004120075F056A4F42411C5F0F434C58FF0A42A63
:10042200E5F03BE43CF620E7141204D5D0E0FFD01F
:10043200E0FED0E0FDD0E0FC1202178014F40412BA
:1004420004D5D0E0FFD0E0FED0E0FDD0E0FC120108
:100452000ED0E0F8E6FAEDD2E7CD33EC332482FB9E
:10046200E4C3CF33CFCE33CECD33CD33DBF37B07F3
:1004720075F00A846004F6081B0AE5F0F6088FF0AE
:10048200740AA4FFACF08EF0740AA42CFEACF050F7
:10049200010C8DF0740AA42CFDE435F0F608DBDEC5
:0304A200740722BA
:1004A5003F8000004120000042C80000447A00005F
:1004B500461C400047C35000497424004B189680E1
:1004C5004CBEBC205A0E1BCA6753C21C749DC5AED8
:1004D500FB60065407601C2323120503EB543860A8
:1004E500091204EF1204FE12010EECF8EDF9EEFA12
:1004F500EFCB22EB1204FE80F1543803241C900448
:10050500A5FE93FC0EEE93FD0EEE930ECE93FF2209
:03000000020DBE30
:0C0DBE00787FE4F6D8FD758159020E051F
:10051500E709F608DFFA8046E709F208DFFA803EC8
:1005250088828C83E709F0A3DFFA8032E309F608B5
:10053500DFFA8078E309F208DFFA807088828C831D
:10054500E309F0A3DFFA806489828A83E0A3F608D1
:10055500DFFA805889828A83E0A3F208DFFA804CAB
:1005650080D280FA80C680D4806980F28033801082
:1005750080A680EA809A80A880DA80E280CA8033EB
:1005850089828A83ECFAE493A3C8C582C8CCC58363
:10059500CCF0A3C8C582C8CCC583CCDFE9DEE78033
:1005A5000D89828A83E493A3F608DFF9ECFAA9F0B2
:1005B500EDFB2289828A83ECFAE0A3C8C582C8CC08
:1005C500C583CCF0A3C8C582C8CCC583CCDFEADE21
:1005D500E880DB89828A83E493A3F208DFF980CC83
:1005E50088F0EF60010E4E60C388F0ED2402B4047C
:1005F5000050B9F582EB2402B4040050AF23234523
:06060500822390056573DD
:10060B00BB010689828A83E0225002E722BBFE02ED
:09061B00E32289828A83E4932220
:10062400BB010CE58229F582E5833AF583E022508B
:1006340006E92582F8E622BBFE06E92582F8E222D5
:0D064400E58229F582E5833AF583E49322EF
:10065100BB010689828A83F0225002F722BBFE0188
:02066100F32282
:10066300EF8DF0A4A8F0CF8CF0A428CE8DF0A42EAB
:02067300FE2265
:10067500BC000BBE0029EF8DF084FFADF022E4CC69
:10068500F875F008EF2FFFEE33FEEC33FCEE9DEC32
:10069500984005FCEE9DFE0FD5F0E9E4CEFD22ED78
:1006A500F8F5F0EE8420D21CFEADF075F008EF2FC2
:1006B500FFED33FD4007985006D5F0F222C398FDB3
:0506C5000FD5F0EA2250
:0E06CA00C3E49FFFE49EFEE49DFDE49CFC2241
:1006D800FAE6FB0808E6F925F0F618E6CA3AF62223
:1006E800D083D082F8E4937012740193700DA3A3A1
:1006F80093F8740193F5828883E4737402936860B5
:06070800EFA3A3A380DFB4
:1010A200E4FFFE12060B600C0FEF70010E09E970EF
:0510B200F20A80EF22AC
:100DCA00020CA8E493A3F8E493A34003F68001F28B
:100DDA0008DFF48029E493A3F85407240CC8C3332A
:100DEA00C4540F4420C8834004F456800146F6DFF9
:100DFA00E4800B010204081020408090104DE47E2C
:100E0A00019360BCA3FF543F30E509541FFEE493ED
:100E1A00A360010ECF54C025E060A840B8E493A3B4
:100E2A00FAE493A3F8E493A3C8C582C8CAC583CADF
:100E3A00F0A3C8C582C8CAC583CADFE9DEE780BE97
:01107100007E
:00000001FF
